:020000040000FA
:10000000A8010228A80B012807309F00FF308500B7
:1000100086006630C025803080059030980007301B
:100020008A0083162530980020309900FC30850026
:10003000FB3086001C15830105148514A63091251C
:100040006B24C3309125E6146725651F2128E5122E
:10005000661E2F2866124E3065060319D62B4830CF
:10006000650603190C2C5330650603195B294730CC
:1000700065060319B62B5630650603191E2C583039
:10008000650603191C2C5430650603191A2CE61D4D
:100090002128523065060319D42957306506031903
:1000A000342A443065060319622846306506031970
:1000B000972A423065060319042B4530650603195B
:1000C000802A21286D30C025EB0003198928043CC3
:1000D00003186C28ED01892803106B0DEC006C0DE2
:1000E0006F3E8400A425C125B7258403C125B3250F
:1000F0002E30BC258403C125B7258403C125B32533
:100100008403EB0B72283F30BC259C25A12544308D
:10011000BC25A425EB0108306B060319BC28532528
:10012000661CA0280F30EF051030EC006D306C0716
:1001300084000008840A840A8000EC0B9628EB0AED
:100140006B1CA7282E30650603198B28682C2030DD
:10015000650603198B280D306506031D682C6B0896
:10016000031DBC286D08031921281B30BC255B30FA
:10017000BC254130BC25C9286D30840003106B0CB0
:100180008000C925EB0D6F308400840AC925EB0B74
:10019000C528A025EB016B08B725A325EB0A6B0842
:1001A000562110306B06031DCB286D08EB000310A1
:1001B000EB0DEB0D6F306B0784000008E700840344
:1001C0000008E80084030008E90084030008EA004E
:1001D00068086A026708031C670A69020318F428A2
:1001E0006808EA006708E9009C254030E4006708D9
:1001F000B725F0306805EB00B325A3258C1A32290A
:100200006B08680603190D292D30BC25A3252E3057
:100210004F21EB0A6B08562100290F306705661A3B
:100220003038242568080D25742420084F21B32573
:10023000A4256A0868026908031C690A6702031C8E
:100240003429E80A680856210F30680503192E2959
:100250002D30BC25A3252E304F2121293F219C255F
:10026000ED0BD52866122128E80A0319E70A680869
:1002700056210F306805031D0D293F21F428A125C3
:1002800040308400E402203000020008031C2E30BD
:10029000BC25840A04085621E40B43290800EC001D
:1002A0006408E40A84006C08800008000F39083AEA
:1002B0000319A42D0800EB015325661C71291E307B
:1002C000EC003F306C0784000008840A840A800038
:1002D000EC0B612984030F306F0580006E08C000AD
:1002E000EB0A2030650603195C296B08031D7C2985
:1002F000543065060319C5290D306506031D682CA9
:100300006B0803199529103C1030031CEB0060307A
:1003100084006B088000C9250310EB0D4030840079
:10032000C925840AEB0B902921286030C0250319C8
:100330002128103C031C21280310600D3F3E84003F
:10034000EB01E619A425A425C125E700B725840300
:10035000C125E800B3258403E61DC2293A30BC2537
:10036000EB0A0F306705242568080D257424200842
:10037000B325A6256B080339031DC22960030319A1
:10038000C2299C25E00BA2292128F8309125E61BE3
:10039000CD29E6174630BC25CF29E6134E30BC25C3
:1003A00066308400C9252128EB015325661CEB2902
:1003B0000F30EF051030EC006D306C078400000842
:1003C000840A840A8000EC0BDC29EB0A6B08083CE9
:1003D0000830031CEB002E3065060319D5292030A8
:1003E00065060319FB290D306506031D682C6B0893
:1003F000031D132221286B080319D5299C251322DC
:10040000E614672520306506031D21280D30BC2524
:100410006B08043C0318FF291B30BC255B30BC254E
:100420004130BC25FF296B08ED0003106B0D6F3EBA
:100430008400E0010430600603199C250008840351
:100440000F39A000B725252500088403A000B32597
:100450000E2574243A30BC252008B325A625A325F3
:10046000E00AED0B1A2A0800EB01532566183D2A15
:1004700020306506031D682C352A0F306F05F1000A
:100480006E08F00020306506031D682C0830BC257E
:100490003A30BC2553252B306506031D5F2A752293
:1004A000F00A0319F10A03306B05033A03199C257E
:1004B000EB0AA1257108B7257008B325482A2D300D
:1004C0006506031D692A75220130F002031CF10341
:1004D000532A20306506031D6F2A7522532A0D30DA
:1004E0006506031D682C75222128661C080071080A
:1004F0000F394038242570080D256E0806250800A0
:1005000053256618882A203065060319802A682C2E
:100510000D306506031D682C0130ED00F301F2017A
:100520006E08F0000F306F05F1006616C928E6125C
:10053000E00153256618A12A203065060319992A7F
:10054000682C0F306F05E9006E08EA00E61AB32A3E
:100550002E306506031DB32AE6160F306F05E7003F
:100560006E08E800992A20306506031D682C532583
:10057000661CC72A0F30EC006F306C07840000083F
:10058000840A8000EC0BBC2A6E08F000E00A2030E0
:1005900065060319B72A0D306506031D682C60082F
:1005A00003192128103C1030031CE000E61AE12A50
:1005B0006908E7006A08E8006003EA070318E90A27
:1005C000E92A68086A026708031C670A6902031CB3
:1005D000682C6008EB006F3E840067080F394038D4
:1005E000242568080D25000806258403E80A031958
:1005F000E70A68086A026708031C670A6902031CA5
:100600002128EB0BED2AE92AE61467252030650640
:100610000319052BE51257306506503003199E2B40
:1006200053306506603003199E2B0D306506031D9F
:10063000682CCA3091256208B325A125CF309125B9
:100640001030242574242008B32520302002031CF8
:10065000302BA4252730BC252008BC252730BC25FD
:10066000A625A125D2309125203024257424A62545
:10067000A125E901EA011D30EC004C30A700A801DA
:100680001830EB00280DA70DEC0DEA0DE90DA80DB3
:100690002B08EA022A08031C2A0FE902031828146F
:1006A0002818552BE9072B08EA07EB0B422B6308A8
:1006B000EB006B18602B0310A70CA80CEB0C592B4C
:1006C0001030EB00EC01E901EA01A80DA70DEA0DDD
:1006D000E90DEC0DEB0B8D2B6C080F39031D792BFD
:1006E000690E0F39031D7B2B69080F39031D7D2B04
:1006F0007F2B6C08B725690EB7256908B7256A08EE
:10070000B325A4254B30BC254830BC257A30BC2508
:100710009C256616E61F952921286A3094236930A6
:1007200094236C309423652B840003308007801D54
:10073000800230308007801F80020800EB003D30CF
:10074000BC2553256618A92B203065060319A12B5B
:10075000682C203065060319A12B0D306506031D9A
:10076000682C6B0824256E080D252128E6106610DC
:10077000EE01EF01F0016725E61DCC2B661DCC2BA9
:10078000E500E50E0430EB00E50DEE0DEF0DF00D8C
:10079000EB0BC42B6614BB2B203065060319BB2B57
:1007A0000D306506031D682CD930E619E23091251D
:1007B0009C258514E61DE82B0510661CF22B70089D
:1007C000C03824256F080D256E106E080D25F42BFA
:1007D000D72574242008E3000510A10AA20BEE2BF4
:1007E000A10BEE2B8030242574248C1A042C200EAF
:1007F0000F39303E840000080319F22B801B042CB3
:100800002008B325A325F22BE615051485101A0838
:100810009C252008E200192B05308A00F330912531
:1008200006308A000030912507308A00013091257A
:100830009C2521280F301F2CEB01202CFF30EB00D2
:1008400066135325661C2B2C66176E080F39303E35
:1008500084006B088000203065060319212C661F78
:100860003E2C0D306506031D672C3030840010309F
:10087000EB00C925840AEB0B392C2128E6144E30F5
:10088000E5126506031D4F2C1030EC00303084005B
:100890006B088000840AEC0B492C6725312C0D3045
:1008A0006506031D682C303084001030EB00A02555
:1008B000A3250408B725000858300319622C5430CA
:1008C000801B7630BC25840AEB0B582C21286B2426
:1008D000EB3091252128303084001030EB00C12509
:1008E000840AEB0B6F2C0800A6018030A5000830AD
:1008F000A900A301A401A701A801861B7D2CA60FB6
:10090000822CA50F842C032D861F7F2CA40F892CED
:10091000A30F8B2C742C861B862CA80F902CA70F52
:10092000922C032D861F8D2CA5132608A8022508BE
:10093000031C250AA7020318A22CA709A809A80AC4
:100940000319A70A2708031D742C2808013C031C5F
:10095000742C0310230CA700240CA8002608A8025E
:100960002508031C250AA7020318BB2CA709A80900
:10097000A80A0319A70A2708031D742C2808013C9C
:10098000031C742C0630A200A101A701A801A20F2C
:10099000CA2CA10FCC2C742C861BC72CA80FD12CD1
:1009A000A70FD32C032D861FCE2C2608A8022508BE
:1009B000031C250AA7020318E22CA709A809A80A04
:1009C0000319A70A2708031D742C2808013C031CDF
:1009D000742C260822022508031C250A2102031C68
:1009E000742C240822022308031C230A2102A00CD1
:1009F000A90BC22C24082607AB0023080318230ADE
:100A00002507AA000800861F032D742CA0000310E0
:100A1000250CA700260CA800162DA0000310250CFD
:100A2000A700260CA8000310A70CA80C0310A70C05
:100A3000A80CA808031DA70A1D2D00001F2DA80B38
:100A40001C2DA70B1D2D252DA0000930A9008316F4
:100A5000861383012508A7002608A800031DA70AFE
:100A60008613322D0000342DA80B312DA70B322D0B
:100A7000A90B3F2D8617831686178301080086175A
:100A8000A00C250803182A08A700260803182B081D
:100A9000A800031DA70A4C2D00004E2DA80B4B2DBE
:100AA000A70B4C2D2A2DE6106610EF01EE016725ED
:100AB000661D0800E5000F30EF05EF0EEE0E6E0527
:100AC000EF04F030EE056508EE046614572D981C0F
:100AD0006C2D181218161A088C1E6C2D1A08E500B9
:100AE000E5131B3A2030031D6508BC250D3A0A307A
:100AF0000319BC256508E6180800651F892DDF3934
:100B0000B93E03188F2D063E031C8F2D0A3E661535
:100B10000800C63E03188F2D0A3E0318872D661164
:100B20000800FF3EEC006C080027043A0319080097
:100B3000043ABC25EC0A932D0D30BC250A30BC2D9F
:100B4000A425A425A425A4252030BC2DA4252D3022
:100B5000BC250830EC00A00D3130031C3030BC2522
:100B6000EC0BAB2D0800EC006C0EB7256C080F39B0
:100B7000F63E0318073E3A3E0C1EBC2D99000800B5
:100B80008400040883169B001C141A08831280003A
:100B90000800000883169A0004089B0055309D0049
:100BA000AA309D009C149C18D32D83120800831634
:100BB0003B3086007F30810083013F308600073064
:100BC000A700A801A80BE22DA70BE22DFF3086009D
:0A0BD0008316FB3086008301080045
:0A0BE6000D340A340A344734203479
:100BF0007B346E346E346E346E346E346E34043442
:100C00007D342834433452342934093409340934C6
:100C10005334433441344E342034423452344B3410
:100C200020347B34503443343D346E346E346E346F
:100C30006E346E346E3420343134383446347D347E
:100C40000D340A3453345B3454345D347B346E34A5
:100C50006E346E3420346E346E346E34203420346E
:100C60006E346E346E347D34283443345234293437
:100C70000934093444344934533450344C34413405
:100C800059347B345334453454347D342034313436
:100C90003634783441344434523420345B34533461
:100CA00054342D344134553454344F3420344F347B
:100CB0004E342F344F34463446345D340D340A34C8
:100CC00056342F3458342F3454345B344E345D341E
:100CD00020346E3420346E34203420346E3420348A
:100CE00028344334523429340934093453344534D4
:100CF00054342F345234533454342F345434523403
:100D00004134433445342034423452344B3420345B
:100D10002D345B344E343A3441344C344C345D34ED
:100D20000D340A34523420346E346E346E342E3422
:100D30006E346E346E342E342E342E346E346E3463
:100D40006E3420342834533450342F3443345234E6
:100D5000293409340934523445344134443420347C
:100D6000383478344134443452340D340A345734EE
:100D700020346E346E346E34203464346434203461
:100D800028342B342F342D342F34533450342F3413
:100D900043345234293409340934573452344934F1
:100DA0005434453420346434643420342D343E3497
:100DB00020346E346E346E340D340A3444342034AE
:100DC0007334733473342E346634663466342034AA
:100DD0002E342E347334733473342E3466346634C4
:100DE00066342034283443345234293409344434AA
:100DF0004934533450344C3441345934203404345D
:100E00008207443441345434413420343434783407
:100E100020347334733473342E3466346634663459
:100E20000D340A34453420346E346E346E3420343C
:100E300028344334523429340934093409344434CD
:100E40004934533450344C344134593420344534CB
:100E50004534443441345434413420343034303413
:100E600030342D346E346E346E340D340A344634DE
:100E700020347334733473347B342E3466346634E4
:100E800066347D342034643464342034643464340F
:100E900020342034643464342034283443345234CD
:100EA00029340934573452344934543445342034C5
:100EB0003134363478346434643420342D343E3460
:100EC00020347334733473347B342E346634663494
:100ED00066347D340D340A34423420347B34573444
:100EE0002F3453342034643464347D342834433410
:100EF00052342934093409340934443449345334DC
:100F000050344C34413459342034423452344B340C
:100F10006E346E34203457342034533454344134D6
:100F200054345534533420347B3457345234493498
:100F30005434453420346434643420342D343E3405
:100F4000203457342F3453347D3404340D340A3470
:100F50000934093449344E34533449344434453423
:100F600052342034563431342E3430340934283459
:100F7000483429342D343E342034483445344C34FC
:100F800050340A3404340D340A3449344E34533462
:100F90003E340434423452344B343A3404345734FB
:100FA0003A3404345334543441345434553453347F
:100FB000043409344F344E342D34533443344134E3
:100FC0004E3404340934423452344B342D345234C8
:100FD0004534543404340D340A34093443344D3424
:100FE00044342D344534523452344F345234043462
:100FF00009344134553454344F342D344F3404348F
:02400E0022038B
:00000001FF
